:100000000C945D000C9485000C9485000C94850084
:100010000C9485000C9485000C9485000C9485004C
:100020000C9485000C9485000C9485000C9485003C
:100030000C9485000C9485000C9485000C9485002C
:100040000C948C020C9485000C9485000C94850013
:100050000C9485000C9485000C9485000C9485000C
:100060000C9485000C94850000000008000201003B
:100070000003040700000000000000000000000072
:10008000250028002B0000000000240027002A0083
:10009000040404040404040402020202020203032E
:1000A0000303030301020408102040800102040836
:1000B0001020010204081020890311241FBECFEF75
:1000C000D8E0DEBFCDBF11E0A0E0B1E0E8E6F7E0A8
:1000D00002C005900D92A231B107D9F721E0A2E14B
:1000E000B1E001C01D92A333B207E1F710E0CDE506
:1000F000D0E004C02197FE010E94A703CC35D107B0
:10010000C9F70E94D6020C94B2030C94000090E050
:10011000FC01EC55FF4F2491FC01E057FF4F849107
:10012000882399F090E0880F991FFC01EA57FF4F50
:10013000A591B491FC01E458FF4F859194918FB73C
:10014000F894EC91E22BEC938FBF0895CF92DF925D
:10015000EF92FF920F931F93CF93DF936C017A017D
:100160008B01C0E0D0E0CE15DF0581F0D8016D91A4
:100170008D01D601ED91FC910190F081E02DC60139
:100180000995892B11F02196EECF7E01C701DF91F1
:10019000CF911F910F91FF90EF90DF90CF90089536
:1001A00090E0FC01E859FF4F2491FC01EC55FF4F12
:1001B0003491FC01E057FF4FE491EE2309F43CC079
:1001C000222339F1233091F038F42130A9F0223084
:1001D00001F584B58F7D12C0273091F02830A1F051
:1001E0002430B9F4809180008F7D03C0809180001D
:1001F0008F77809380000DC084B58F7784BD09C050
:100200008091B0008F7703C08091B0008F7D809384
:10021000B000F0E0EE0FFF1FE458FF4FA591B4913E
:100220009FB7F894611104C08C913095382302C0B7
:10023000EC913E2B3C939FBF08953FB7F89480917B
:10024000170190911801A0911901B0911A0126B5DA
:10025000A89B05C02F3F19F00196A11DB11D3FBFFE
:10026000BA2FA92F982F8827820F911DA11DB11D8C
:10027000BC01CD0142E0660F771F881F991F4A9588
:10028000D1F70895CF93DF93EC0160E08E810E9457
:10029000D00061E08E810E94D00060E08E810E94DB
:1002A000D0008BE891E00197F1F7DF91CF910895AD
:1002B000CF92DF92EF92FF920F931F93CF93DF9332
:1002C0006C017C0187E0E80EF11CC0E0D0E0062F55
:1002D00010E0B8010C2E02C0759567950A94E2F7FC
:1002E0006170F70181917F010E94D0002196C43096
:1002F000D10579F7C601DF91CF911F910F91FF9042
:10030000EF90DF90CF900C944201CF92DF92EF926A
:10031000FF920F931F93CF93DF93EC01F62E642F80
:100320008C810E94D0008D818F3F19F060E00E9487
:10033000D0008F850F2D10E084FF25C06E0187E06F
:10034000C80ED11CE12CF12CB8010E2C02C0759501
:1003500067950A94E2F76170F60181916F010E943E
:10036000D000FFEFEF1AFF0A88E0E816F10461F70A
:10037000CE01DF91CF911F910F91FF90EF90DF9011
:10038000CF900C944201B80184E0759567958A95E9
:10039000E1F7CE010E9458016F2DCE01DF91CF9180
:1003A0001F910F91FF90EF90DF90CF900C94580128
:1003B00040E0682F8BE191E00C948501CF93DF93AF
:1003C000823028F090912A01986090932A018093BE
:1003D0002E0110922F0180E48093300180E1809300
:1003E000310180E58093320180911F010E948700D6
:1003F000809120018F3F11F00E94870080912101A0
:100400000E948700CBE1D1E09E012B5131408091C9
:100410002A0184FD03C084E090E002C088E090E0FF
:1004200021962817390724F48E810E948700ECCF8B
:100430008BE39DE00197F1F760E080911F010E943E
:10044000D00060E0809121010E94D00080912001C5
:100450008F3F19F060E00E94D00080912A0184FD56
:1004600020C063E08BE191E00E945801CBE4D6E428
:10047000CE010197F1F763E08BE191E00E94580112
:100480002197F1F763E08BE191E00E94580183E549
:1004900092E00197F1F762E08BE191E00E94580150
:1004A00015C080620E94D8018BE496E40197F1F7B1
:1004B00080912A0180620E94D80183E592E0019731
:1004C000F1F780912A0180620E94D80180912A016F
:1004D00080620E94D80184E080932B018CE00E940E
:1004E000D80181E00E94D8018BE39FE10197F1F7E9
:1004F00082E080932C0186E0DF91CF910C94D801AB
:1005000041E00E94850181E090E00895089580E037
:1005100090E008950E94AD031F920F920FB60F92C4
:1005200011242F933F938F939F93AF93BF93809109
:10053000130190911401A0911501B0911601309111
:10054000120123E0230F2D3720F40196A11DB11DC8
:1005500005C026E8230F0296A11DB11D20931201AC
:100560008093130190931401A0931501B093160189
:100570008091170190911801A0911901B0911A0171
:100580000196A11DB11D8093170190931801A093AE
:100590001901B0931A01BF91AF919F918F913F9133
:1005A0002F910F900FBE0F901F901895789484B5DF
:1005B000826084BD84B5816084BD85B5826085BD5F
:1005C00085B5816085BD80916E00816080936E00ED
:1005D00010928100809181008260809381008091DF
:1005E0008100816080938100809180008160809390
:1005F00080008091B10084608093B1008091B00050
:1006000081608093B00080917A00846080937A004A
:1006100080917A00826080937A0080917A00816074
:1006200080937A0080917A00806880937A0010929B
:10063000C10082E00E94DE019BE0E92ECBE3DFE116
:1006400000E010E0F12CE1E080912E018111E0E06A
:10065000E195F0E0E55EFE4F84898F0D80680E9491
:10066000D80145E050E06CE071E08BE191E00E9440
:10067000A6009E2D9F19E0912E01E23010F4E1506A
:1006800001C0E1E0F0E0E55EFE4F8489890F8068FB
:100690000E94D80145E050E06CE071E08BE191E010
:1006A0000E94A6000E941D012B013C0186E9882EB4
:1006B000912CA12CB12C0E941D01DC01CB018419CD
:1006C0009509A609B709883E9340A105B10598F39D
:1006D00021E0821A9108A108B10888EE480E83E053
:1006E000581E611C711C81149104A104B10419F7F6
:1006F00081E00E94D801CE010197F1F7F3948CE0DC
:10070000F812A1CF0115110509F49CCF0E94000039
:1007100099CFEBE1F1E01382128284E091E09183C2
:1007200080838CE084838FEF85838BE0868385E0F4
:10073000878384E0808783E0818782E082871386D5
:10074000148615861686178681E00C94DE01EE0F5E
:10075000FF1F0590F491E02D099481E090E0F8945A
:080760000C94B203F894FFCFE2
:10076800000000008002A600870286025249534812
:02077800490036
:00000001FF
